{
  "contractName": "SupplyChain",
  "abi": [
    {
      "constant": false,
      "inputs": [
        {
          "name": "account",
          "type": "address"
        }
      ],
      "name": "addConsumer",
      "outputs": [],
      "payable": false,
      "stateMutability": "nonpayable",
      "type": "function",
      "signature": "0x112940f9"
    },
    {
      "constant": true,
      "inputs": [
        {
          "name": "account",
          "type": "address"
        }
      ],
      "name": "isRetailer",
      "outputs": [
        {
          "name": "",
          "type": "bool"
        }
      ],
      "payable": false,
      "stateMutability": "view",
      "type": "function",
      "signature": "0x5da09b88"
    },
    {
      "constant": false,
      "inputs": [],
      "name": "renounceDistributor",
      "outputs": [],
      "payable": false,
      "stateMutability": "nonpayable",
      "type": "function",
      "signature": "0x644241db"
    },
    {
      "constant": false,
      "inputs": [],
      "name": "renounceOwnership",
      "outputs": [],
      "payable": false,
      "stateMutability": "nonpayable",
      "type": "function",
      "signature": "0x715018a6"
    },
    {
      "constant": false,
      "inputs": [
        {
          "name": "account",
          "type": "address"
        }
      ],
      "name": "addDistributor",
      "outputs": [],
      "payable": false,
      "stateMutability": "nonpayable",
      "type": "function",
      "signature": "0x7250e224"
    },
    {
      "constant": false,
      "inputs": [
        {
          "name": "account",
          "type": "address"
        }
      ],
      "name": "addFarmer",
      "outputs": [],
      "payable": false,
      "stateMutability": "nonpayable",
      "type": "function",
      "signature": "0x80c3f96d"
    },
    {
      "constant": false,
      "inputs": [],
      "name": "renounceFarmer",
      "outputs": [],
      "payable": false,
      "stateMutability": "nonpayable",
      "type": "function",
      "signature": "0x80fc0ce4"
    },
    {
      "constant": true,
      "inputs": [
        {
          "name": "account",
          "type": "address"
        }
      ],
      "name": "isConsumer",
      "outputs": [
        {
          "name": "",
          "type": "bool"
        }
      ],
      "payable": false,
      "stateMutability": "view",
      "type": "function",
      "signature": "0x834ff739"
    },
    {
      "constant": false,
      "inputs": [
        {
          "name": "account",
          "type": "address"
        }
      ],
      "name": "addRetailer",
      "outputs": [],
      "payable": false,
      "stateMutability": "nonpayable",
      "type": "function",
      "signature": "0x8ec4f505"
    },
    {
      "constant": true,
      "inputs": [
        {
          "name": "account",
          "type": "address"
        }
      ],
      "name": "isDistributor",
      "outputs": [
        {
          "name": "",
          "type": "bool"
        }
      ],
      "payable": false,
      "stateMutability": "view",
      "type": "function",
      "signature": "0x8f0c86fa"
    },
    {
      "constant": true,
      "inputs": [],
      "name": "isOwner",
      "outputs": [
        {
          "name": "",
          "type": "bool"
        }
      ],
      "payable": false,
      "stateMutability": "view",
      "type": "function",
      "signature": "0x8f32d59b"
    },
    {
      "constant": true,
      "inputs": [
        {
          "name": "account",
          "type": "address"
        }
      ],
      "name": "isFarmer",
      "outputs": [
        {
          "name": "",
          "type": "bool"
        }
      ],
      "payable": false,
      "stateMutability": "view",
      "type": "function",
      "signature": "0xb9429069"
    },
    {
      "constant": false,
      "inputs": [],
      "name": "renounceRetailer",
      "outputs": [],
      "payable": false,
      "stateMutability": "nonpayable",
      "type": "function",
      "signature": "0xdb0e6a2f"
    },
    {
      "constant": true,
      "inputs": [],
      "name": "ownerLookup",
      "outputs": [
        {
          "name": "",
          "type": "address"
        }
      ],
      "payable": false,
      "stateMutability": "view",
      "type": "function",
      "signature": "0xe02e64ea"
    },
    {
      "constant": false,
      "inputs": [
        {
          "name": "newOwner",
          "type": "address"
        }
      ],
      "name": "transferOwnership",
      "outputs": [],
      "payable": false,
      "stateMutability": "nonpayable",
      "type": "function",
      "signature": "0xf2fde38b"
    },
    {
      "constant": false,
      "inputs": [
        {
          "name": "account",
          "type": "address"
        }
      ],
      "name": "renounceConsumer",
      "outputs": [],
      "payable": false,
      "stateMutability": "nonpayable",
      "type": "function",
      "signature": "0xf487d48d"
    },
    {
      "inputs": [],
      "payable": true,
      "stateMutability": "payable",
      "type": "constructor",
      "signature": "constructor"
    },
    {
      "anonymous": false,
      "inputs": [
        {
          "indexed": false,
          "name": "upc",
          "type": "uint256"
        }
      ],
      "name": "ProduceByFarmer",
      "type": "event",
      "signature": "0xe8a027a2bb83abbf6ec926b84d4aeb91585c16b58b27b8d0f0fb451566a55211"
    },
    {
      "anonymous": false,
      "inputs": [
        {
          "indexed": false,
          "name": "upc",
          "type": "uint256"
        }
      ],
      "name": "ForSaleByFarmer",
      "type": "event",
      "signature": "0x7a02b5a0b1f928cffcafd0e750f369a40f124f4f34f65801fe1f0d945b9a7915"
    },
    {
      "anonymous": false,
      "inputs": [
        {
          "indexed": false,
          "name": "upc",
          "type": "uint256"
        }
      ],
      "name": "PurchasedByDistributor",
      "type": "event",
      "signature": "0xacd9402b9f9e8c15fa7c1819f8393ca56eb61316cc354fc6ac2150aed3ce7931"
    },
    {
      "anonymous": false,
      "inputs": [
        {
          "indexed": false,
          "name": "upc",
          "type": "uint256"
        }
      ],
      "name": "ShippedByFarmer",
      "type": "event",
      "signature": "0xe6ae062d51064ae2a5a31a72fcb1bee1d343fdc6bddc1d3dfce658ece4f03212"
    },
    {
      "anonymous": false,
      "inputs": [
        {
          "indexed": false,
          "name": "upc",
          "type": "uint256"
        }
      ],
      "name": "ReceivedByDistributor",
      "type": "event",
      "signature": "0xc8ca2150e6e1849a10ef5aa4932060fa353bcacdffeb150c9e1890c6ab9403cc"
    },
    {
      "anonymous": false,
      "inputs": [
        {
          "indexed": false,
          "name": "upc",
          "type": "uint256"
        }
      ],
      "name": "ProcessedByDistributor",
      "type": "event",
      "signature": "0x5725e53fd0efed5294b7db2af148f040264a63630b4deb0afbccf6e60830988a"
    },
    {
      "anonymous": false,
      "inputs": [
        {
          "indexed": false,
          "name": "upc",
          "type": "uint256"
        }
      ],
      "name": "PackagedByDistributor",
      "type": "event",
      "signature": "0xe66bb55f536a4cc96647dde6ff37b712c07348eaa88366931f491d93c0fcd981"
    },
    {
      "anonymous": false,
      "inputs": [
        {
          "indexed": false,
          "name": "upc",
          "type": "uint256"
        }
      ],
      "name": "ForSaleByDistributor",
      "type": "event",
      "signature": "0x539b4a835a8a5d1bc5756a9f146e2bfeaa6bd6b1fa77a7631c0a5154c86cdd03"
    },
    {
      "anonymous": false,
      "inputs": [
        {
          "indexed": false,
          "name": "upc",
          "type": "uint256"
        }
      ],
      "name": "PurchasedByRetailer",
      "type": "event",
      "signature": "0xaa7352d10146444c3afd9bd7fb0ae56b0a85e81139536bbec3f1f660fddd7be1"
    },
    {
      "anonymous": false,
      "inputs": [
        {
          "indexed": false,
          "name": "upc",
          "type": "uint256"
        }
      ],
      "name": "ShippedByDistributor",
      "type": "event",
      "signature": "0xc5c33776d405e5686e4386e1ef31a65cf6195e4f7ceb8808ab64d05b6ccbc2a6"
    },
    {
      "anonymous": false,
      "inputs": [
        {
          "indexed": false,
          "name": "upc",
          "type": "uint256"
        }
      ],
      "name": "ReceivedByRetailer",
      "type": "event",
      "signature": "0x322f34e90f2269750b3e28178631d975cc678db36f21098fe548b7f755ce0bd0"
    },
    {
      "anonymous": false,
      "inputs": [
        {
          "indexed": false,
          "name": "upc",
          "type": "uint256"
        }
      ],
      "name": "ForSaleByRetailer",
      "type": "event",
      "signature": "0x59e7ad085805e2b02ad4b0f8033bd75e7ee4c8cd43f996267463585e35896252"
    },
    {
      "anonymous": false,
      "inputs": [
        {
          "indexed": false,
          "name": "upc",
          "type": "uint256"
        }
      ],
      "name": "PurchasedByConsumer",
      "type": "event",
      "signature": "0xc7e94446a942a0541d0224ece380a730c85f03db7188fca783225da9255929f7"
    },
    {
      "anonymous": false,
      "inputs": [
        {
          "indexed": true,
          "name": "account",
          "type": "address"
        }
      ],
      "name": "ConsumerAdded",
      "type": "event",
      "signature": "0x28b26e7a3d20aedbc5f8f2ebf7da671c0491723a2b78f47a097b0e46dee07142"
    },
    {
      "anonymous": false,
      "inputs": [
        {
          "indexed": true,
          "name": "account",
          "type": "address"
        }
      ],
      "name": "ConsumerRemoved",
      "type": "event",
      "signature": "0xe3f5ed5f263f1f01764a96edfc7d025f511ec5f7d180e8816908b78bcf74f098"
    },
    {
      "anonymous": false,
      "inputs": [
        {
          "indexed": true,
          "name": "account",
          "type": "address"
        }
      ],
      "name": "RetailerAdded",
      "type": "event",
      "signature": "0x71ae26cad02663e3d92efd6ec56031a80d74a20c0ab4183faa8bf262261c9baa"
    },
    {
      "anonymous": false,
      "inputs": [
        {
          "indexed": true,
          "name": "account",
          "type": "address"
        }
      ],
      "name": "RetailerRemoved",
      "type": "event",
      "signature": "0xdb7176e79cffef81cb01767dd0447a0b24bb72ca9778d4b245581086b2a7e6db"
    },
    {
      "anonymous": false,
      "inputs": [
        {
          "indexed": true,
          "name": "account",
          "type": "address"
        }
      ],
      "name": "DistributorAdded",
      "type": "event",
      "signature": "0xddbf200aa634dc3fb81cfd68583dd1040d1c751d335e1d86b631bde3e977fea8"
    },
    {
      "anonymous": false,
      "inputs": [
        {
          "indexed": true,
          "name": "account",
          "type": "address"
        }
      ],
      "name": "DistributorRemoved",
      "type": "event",
      "signature": "0x126174f6cf49c81cdb4a9214c6b8f037bef55b4ec31e4fc776cea2a1c8a88d59"
    },
    {
      "anonymous": false,
      "inputs": [
        {
          "indexed": true,
          "name": "account",
          "type": "address"
        }
      ],
      "name": "FarmerAdded",
      "type": "event",
      "signature": "0x2e0ded4123377a3c2bc9a26f1717655a129e2f20752924d42e730ec89c83dbd0"
    },
    {
      "anonymous": false,
      "inputs": [
        {
          "indexed": true,
          "name": "account",
          "type": "address"
        }
      ],
      "name": "FarmerRemoved",
      "type": "event",
      "signature": "0xa5e0f060af304ab17dd418c7927e3da3ae7868189bf387aee09ab179ccc572f2"
    },
    {
      "anonymous": false,
      "inputs": [
        {
          "indexed": true,
          "name": "oldOwner",
          "type": "address"
        },
        {
          "indexed": true,
          "name": "newOwner",
          "type": "address"
        }
      ],
      "name": "TransferOwnership",
      "type": "event",
      "signature": "0x5c486528ec3e3f0ea91181cff8116f02bfa350e03b8b6f12e00765adbb5af85c"
    },
    {
      "constant": false,
      "inputs": [],
      "name": "kill",
      "outputs": [],
      "payable": false,
      "stateMutability": "nonpayable",
      "type": "function",
      "signature": "0x41c0e1b5"
    },
    {
      "constant": false,
      "inputs": [
        {
          "name": "_upc",
          "type": "uint256"
        },
        {
          "name": "_originFarmName",
          "type": "string"
        },
        {
          "name": "_originFarmInformation",
          "type": "string"
        },
        {
          "name": "_originFarmLatitude",
          "type": "string"
        },
        {
          "name": "_originFarmLongitude",
          "type": "string"
        },
        {
          "name": "_productNotes",
          "type": "string"
        },
        {
          "name": "_price",
          "type": "uint256"
        }
      ],
      "name": "produceItemByFarmer",
      "outputs": [],
      "payable": false,
      "stateMutability": "nonpayable",
      "type": "function",
      "signature": "0xe2bb26e9"
    },
    {
      "constant": false,
      "inputs": [
        {
          "name": "_upc",
          "type": "uint256"
        },
        {
          "name": "_price",
          "type": "uint256"
        }
      ],
      "name": "sellItemByFarmer",
      "outputs": [],
      "payable": false,
      "stateMutability": "nonpayable",
      "type": "function",
      "signature": "0xe618f000"
    },
    {
      "constant": false,
      "inputs": [
        {
          "name": "_upc",
          "type": "uint256"
        }
      ],
      "name": "purchaseItemByDistributor",
      "outputs": [],
      "payable": true,
      "stateMutability": "payable",
      "type": "function",
      "signature": "0xfdcdc06f"
    },
    {
      "constant": false,
      "inputs": [
        {
          "name": "_upc",
          "type": "uint256"
        }
      ],
      "name": "shippedItemByFarmer",
      "outputs": [],
      "payable": true,
      "stateMutability": "payable",
      "type": "function",
      "signature": "0x71f3ff90"
    },
    {
      "constant": false,
      "inputs": [
        {
          "name": "_upc",
          "type": "uint256"
        }
      ],
      "name": "receivedItemByDistributor",
      "outputs": [],
      "payable": false,
      "stateMutability": "nonpayable",
      "type": "function",
      "signature": "0x24cb1669"
    },
    {
      "constant": false,
      "inputs": [
        {
          "name": "_upc",
          "type": "uint256"
        },
        {
          "name": "slices",
          "type": "uint256"
        }
      ],
      "name": "processedItemByDistributor",
      "outputs": [],
      "payable": false,
      "stateMutability": "nonpayable",
      "type": "function",
      "signature": "0xeab7d6e8"
    },
    {
      "constant": false,
      "inputs": [
        {
          "name": "_upc",
          "type": "uint256"
        }
      ],
      "name": "packageItemByDistributor",
      "outputs": [],
      "payable": false,
      "stateMutability": "nonpayable",
      "type": "function",
      "signature": "0x91541355"
    },
    {
      "constant": false,
      "inputs": [
        {
          "name": "_upc",
          "type": "uint256"
        },
        {
          "name": "_price",
          "type": "uint256"
        }
      ],
      "name": "sellItemByDistributor",
      "outputs": [],
      "payable": false,
      "stateMutability": "nonpayable",
      "type": "function",
      "signature": "0x8adff8ba"
    },
    {
      "constant": false,
      "inputs": [
        {
          "name": "_upc",
          "type": "uint256"
        }
      ],
      "name": "purchaseItemByRetailer",
      "outputs": [],
      "payable": true,
      "stateMutability": "payable",
      "type": "function",
      "signature": "0x26d529b4"
    },
    {
      "constant": false,
      "inputs": [
        {
          "name": "_upc",
          "type": "uint256"
        }
      ],
      "name": "shippedItemByDistributor",
      "outputs": [],
      "payable": false,
      "stateMutability": "nonpayable",
      "type": "function",
      "signature": "0x82e831ec"
    },
    {
      "constant": false,
      "inputs": [
        {
          "name": "_upc",
          "type": "uint256"
        }
      ],
      "name": "receivedItemByRetailer",
      "outputs": [],
      "payable": false,
      "stateMutability": "nonpayable",
      "type": "function",
      "signature": "0x37b2f92c"
    },
    {
      "constant": false,
      "inputs": [
        {
          "name": "_upc",
          "type": "uint256"
        },
        {
          "name": "_price",
          "type": "uint256"
        }
      ],
      "name": "sellItemByRetailer",
      "outputs": [],
      "payable": false,
      "stateMutability": "nonpayable",
      "type": "function",
      "signature": "0x546eb586"
    },
    {
      "constant": false,
      "inputs": [
        {
          "name": "_upc",
          "type": "uint256"
        }
      ],
      "name": "purchaseItemByConsumer",
      "outputs": [],
      "payable": true,
      "stateMutability": "payable",
      "type": "function",
      "signature": "0xdf74dc3a"
    },
    {
      "constant": true,
      "inputs": [
        {
          "name": "_upc",
          "type": "uint256"
        }
      ],
      "name": "fetchItemBufferOne",
      "outputs": [
        {
          "name": "itemSKU",
          "type": "uint256"
        },
        {
          "name": "itemUPC",
          "type": "uint256"
        },
        {
          "name": "ownerID",
          "type": "address"
        },
        {
          "name": "originFarmerID",
          "type": "address"
        },
        {
          "name": "originFarmName",
          "type": "string"
        },
        {
          "name": "originFarmInformation",
          "type": "string"
        },
        {
          "name": "originFarmLatitude",
          "type": "string"
        },
        {
          "name": "originFarmLongitude",
          "type": "string"
        },
        {
          "name": "productDate",
          "type": "uint256"
        },
        {
          "name": "productSliced",
          "type": "uint256"
        }
      ],
      "payable": false,
      "stateMutability": "view",
      "type": "function",
      "signature": "0x77c45913"
    },
    {
      "constant": true,
      "inputs": [
        {
          "name": "_upc",
          "type": "uint256"
        }
      ],
      "name": "fetchItemBufferTwo",
      "outputs": [
        {
          "name": "itemSKU",
          "type": "uint256"
        },
        {
          "name": "itemUPC",
          "type": "uint256"
        },
        {
          "name": "productID",
          "type": "uint256"
        },
        {
          "name": "productNotes",
          "type": "string"
        },
        {
          "name": "productPrice",
          "type": "uint256"
        },
        {
          "name": "productDate",
          "type": "uint256"
        },
        {
          "name": "itemState",
          "type": "uint8"
        },
        {
          "name": "distributorID",
          "type": "address"
        },
        {
          "name": "retailerID",
          "type": "address"
        },
        {
          "name": "consumerID",
          "type": "address"
        }
      ],
      "payable": false,
      "stateMutability": "view",
      "type": "function",
      "signature": "0x66225ff9"
    },
    {
      "constant": true,
      "inputs": [
        {
          "name": "_upc",
          "type": "uint256"
        }
      ],
      "name": "fetchitemHistory",
      "outputs": [
        {
          "name": "blockfarmerToDistributor",
          "type": "uint256"
        },
        {
          "name": "blockDistributorToRetailer",
          "type": "uint256"
        },
        {
          "name": "blockRetailerToConsumer",
          "type": "uint256"
        }
      ],
      "payable": false,
      "stateMutability": "view",
      "type": "function",
      "signature": "0x1154501c"
    }
  ],
  "bytecode": "0x6080604052336000806101000a81548173ffffffffffffffffffffffffffffffffffffffff021916908373ffffffffffffffffffffffffffffffffffffffff1602179055506000809054906101000a900473ffffffffffffffffffffffffffffffffffffffff1673ffffffffffffffffffffffffffffffffffffffff16600073ffffffffffffffffffffffffffffffffffffffff167f5c486528ec3e3f0ea91181cff8116f02bfa350e03b8b6f12e00765adbb5af85c60405160405180910390a3620000da336200017f640100000000026401000000009004565b620000f433620001e9640100000000026401000000009004565b6200010e3362000253640100000000026401000000009004565b6200012833620002bd640100000000026401000000009004565b33600560006101000a81548173ffffffffffffffffffffffffffffffffffffffff021916908373ffffffffffffffffffffffffffffffffffffffff160217905550600160078190555060016006819055506200047f565b620001a3816001620003276401000000000262003e39179091906401000000009004565b8073ffffffffffffffffffffffffffffffffffffffff167f2e0ded4123377a3c2bc9a26f1717655a129e2f20752924d42e730ec89c83dbd060405160405180910390a250565b6200020d816002620003276401000000000262003e39179091906401000000009004565b8073ffffffffffffffffffffffffffffffffffffffff167fddbf200aa634dc3fb81cfd68583dd1040d1c751d335e1d86b631bde3e977fea860405160405180910390a250565b62000277816003620003276401000000000262003e39179091906401000000009004565b8073ffffffffffffffffffffffffffffffffffffffff167f71ae26cad02663e3d92efd6ec56031a80d74a20c0ab4183faa8bf262261c9baa60405160405180910390a250565b620002e1816004620003276401000000000262003e39179091906401000000009004565b8073ffffffffffffffffffffffffffffffffffffffff167f28b26e7a3d20aedbc5f8f2ebf7da671c0491723a2b78f47a097b0e46dee0714260405160405180910390a250565b600073ffffffffffffffffffffffffffffffffffffffff168173ffffffffffffffffffffffffffffffffffffffff16141515156200036457600080fd5b6200037f8282620003ea640100000000026401000000009004565b1515156200038c57600080fd5b60018260000160008373ffffffffffffffffffffffffffffffffffffffff1673ffffffffffffffffffffffffffffffffffffffff16815260200190815260200160002060006101000a81548160ff0219169083151502179055505050565b60008073ffffffffffffffffffffffffffffffffffffffff168273ffffffffffffffffffffffffffffffffffffffff16141515156200042857600080fd5b8260000160008373ffffffffffffffffffffffffffffffffffffffff1673ffffffffffffffffffffffffffffffffffffffff16815260200190815260200160002060009054906101000a900460ff16905092915050565b614189806200048f6000396000f3fe6080604052600436106101a1576000357c0100000000000000000000000000000000000000000000000000000000900463ffffffff168063112940f9146101a65780631154501c146101f757806324cb16691461025457806326d529b41461028f57806337b2f92c146102bd57806341c0e1b5146102f8578063546eb5861461030f5780635da09b8814610354578063644241db146103bd57806366225ff9146103d4578063715018a61461055957806371f3ff90146105705780637250e2241461059e57806377c45913146105ef57806380c3f96d1461086957806380fc0ce4146108ba57806382e831ec146108d1578063834ff7391461090c5780638adff8ba146109755780638ec4f505146109ba5780638f0c86fa14610a0b5780638f32d59b14610a745780639154135514610aa3578063b942906914610ade578063db0e6a2f14610b47578063df74dc3a14610b5e578063e02e64ea14610b8c578063e2bb26e914610be3578063e618f00014610f1b578063eab7d6e814610f60578063f2fde38b14610fa5578063f487d48d14610ff6578063fdcdc06f14611047575b600080fd5b3480156101b257600080fd5b506101f5600480360360208110156101c957600080fd5b81019080803573ffffffffffffffffffffffffffffffffffffffff169060200190929190505050611075565b005b34801561020357600080fd5b506102306004803603602081101561021a57600080fd5b8101908080359060200190929190505050611095565b60405180848152602001838152602001828152602001935050505060405180910390f35b34801561026057600080fd5b5061028d6004803603602081101561027757600080fd5b81019080803590602001909291905050506110fe565b005b6102bb600480360360208110156102a557600080fd5b8101908080359060200190929190505050611240565b005b3480156102c957600080fd5b506102f6600480360360208110156102e057600080fd5b810190808035906020019092919050505061150b565b005b34801561030457600080fd5b5061030d61164d565b005b34801561031b57600080fd5b506103526004803603604081101561033257600080fd5b8101908080359060200190929190803590602001909291905050506116ed565b005b34801561036057600080fd5b506103a36004803603602081101561037757600080fd5b81019080803573ffffffffffffffffffffffffffffffffffffffff16906020019092919050505061184b565b604051808215151515815260200191505060405180910390f35b3480156103c957600080fd5b506103d2611868565b005b3480156103e057600080fd5b5061040d600480360360208110156103f757600080fd5b8101908080359060200190929190505050611873565b604051808b81526020018a81526020018981526020018060200188815260200187815260200186600c81111561043f57fe5b60ff1681526020018573ffffffffffffffffffffffffffffffffffffffff1673ffffffffffffffffffffffffffffffffffffffff1681526020018473ffffffffffffffffffffffffffffffffffffffff1673ffffffffffffffffffffffffffffffffffffffff1681526020018373ffffffffffffffffffffffffffffffffffffffff1673ffffffffffffffffffffffffffffffffffffffff168152602001828103825289818151815260200191508051906020019080838360005b838110156105155780820151818401526020810190506104fa565b50505050905090810190601f1680156105425780820380516001836020036101000a031916815260200191505b509b50505050505050505050505060405180910390f35b34801561056557600080fd5b5061056e611e4d565b005b61059c6004803603602081101561058657600080fd5b8101908080359060200190929190505050611f68565b005b3480156105aa57600080fd5b506105ed600480360360208110156105c157600080fd5b81019080803573ffffffffffffffffffffffffffffffffffffffff1690602001909291905050506120aa565b005b3480156105fb57600080fd5b506106286004803603602081101561061257600080fd5b81019080803590602001909291905050506120ca565b604051808b81526020018a81526020018973ffffffffffffffffffffffffffffffffffffffff1673ffffffffffffffffffffffffffffffffffffffff1681526020018873ffffffffffffffffffffffffffffffffffffffff1673ffffffffffffffffffffffffffffffffffffffff1681526020018060200180602001806020018060200187815260200186815260200185810385528b818151815260200191508051906020019080838360005b838110156106f05780820151818401526020810190506106d5565b50505050905090810190601f16801561071d5780820380516001836020036101000a031916815260200191505b5085810384528a818151815260200191508051906020019080838360005b8381101561075657808201518184015260208101905061073b565b50505050905090810190601f1680156107835780820380516001836020036101000a031916815260200191505b50858103835289818151815260200191508051906020019080838360005b838110156107bc5780820151818401526020810190506107a1565b50505050905090810190601f1680156107e95780820380516001836020036101000a031916815260200191505b50858103825288818151815260200191508051906020019080838360005b83811015610822578082015181840152602081019050610807565b50505050905090810190601f16801561084f5780820380516001836020036101000a031916815260200191505b509e50505050505050505050505050505060405180910390f35b34801561087557600080fd5b506108b86004803603602081101561088c57600080fd5b81019080803573ffffffffffffffffffffffffffffffffffffffff1690602001909291905050506126a6565b005b3480156108c657600080fd5b506108cf6126c6565b005b3480156108dd57600080fd5b5061090a600480360360208110156108f457600080fd5b81019080803590602001909291905050506126d1565b005b34801561091857600080fd5b5061095b6004803603602081101561092f57600080fd5b81019080803573ffffffffffffffffffffffffffffffffffffffff169060200190929190505050612813565b604051808215151515815260200191505060405180910390f35b34801561098157600080fd5b506109b86004803603604081101561099857600080fd5b810190808035906020019092919080359060200190929190505050612830565b005b3480156109c657600080fd5b50610a09600480360360208110156109dd57600080fd5b81019080803573ffffffffffffffffffffffffffffffffffffffff169060200190929190505050612990565b005b348015610a1757600080fd5b50610a5a60048036036020811015610a2e57600080fd5b81019080803573ffffffffffffffffffffffffffffffffffffffff1690602001909291905050506129b0565b604051808215151515815260200191505060405180910390f35b348015610a8057600080fd5b50610a896129cd565b604051808215151515815260200191505060405180910390f35b348015610aaf57600080fd5b50610adc60048036036020811015610ac657600080fd5b8101908080359060200190929190505050612a24565b005b348015610aea57600080fd5b50610b2d60048036036020811015610b0157600080fd5b81019080803573ffffffffffffffffffffffffffffffffffffffff169060200190929190505050612b66565b604051808215151515815260200191505060405180910390f35b348015610b5357600080fd5b50610b5c612b83565b005b610b8a60048036036020811015610b7457600080fd5b8101908080359060200190929190505050612b8e565b005b348015610b9857600080fd5b50610ba1612eaf565b604051808273ffffffffffffffffffffffffffffffffffffffff1673ffffffffffffffffffffffffffffffffffffffff16815260200191505060405180910390f35b348015610bef57600080fd5b50610f19600480360360e0811015610c0657600080fd5b810190808035906020019092919080359060200190640100000000811115610c2d57600080fd5b820183602082011115610c3f57600080fd5b80359060200191846001830284011164010000000083111715610c6157600080fd5b91908080601f016020809104026020016040519081016040528093929190818152602001838380828437600081840152601f19601f82011690508083019250505050505050919291929080359060200190640100000000811115610cc457600080fd5b820183602082011115610cd657600080fd5b80359060200191846001830284011164010000000083111715610cf857600080fd5b91908080601f016020809104026020016040519081016040528093929190818152602001838380828437600081840152601f19601f82011690508083019250505050505050919291929080359060200190640100000000811115610d5b57600080fd5b820183602082011115610d6d57600080fd5b80359060200191846001830284011164010000000083111715610d8f57600080fd5b91908080601f016020809104026020016040519081016040528093929190818152602001838380828437600081840152601f19601f82011690508083019250505050505050919291929080359060200190640100000000811115610df257600080fd5b820183602082011115610e0457600080fd5b80359060200191846001830284011164010000000083111715610e2657600080fd5b91908080601f016020809104026020016040519081016040528093929190818152602001838380828437600081840152601f19601f82011690508083019250505050505050919291929080359060200190640100000000811115610e8957600080fd5b820183602082011115610e9b57600080fd5b80359060200191846001830284011164010000000083111715610ebd57600080fd5b91908080601f016020809104026020016040519081016040528093929190818152602001838380828437600081840152601f19601f82011690508083019250505050505050919291929080359060200190929190505050612ed8565b005b348015610f2757600080fd5b50610f5e60048036036040811015610f3e57600080fd5b8101908080359060200190929190803590602001909291905050506133d5565b005b348015610f6c57600080fd5b50610fa360048036036040811015610f8357600080fd5b810190808035906020019092919080359060200190929190505050613533565b005b348015610fb157600080fd5b50610ff460048036036020811015610fc857600080fd5b81019080803573ffffffffffffffffffffffffffffffffffffffff169060200190929190505050613691565b005b34801561100257600080fd5b506110456004803603602081101561101957600080fd5b81019080803573ffffffffffffffffffffffffffffffffffffffff1690602001909291905050506136f9565b005b6110736004803603602081101561105d57600080fd5b8101908080359060200190929190505050613705565b005b61107e33612813565b151561108957600080fd5b611092816139d1565b50565b60008060006110a2613f98565b600960008681526020019081526020016000206060604051908101604052908160008201548152602001600182015481526020016002820154815250509050806000015181602001518260400151935093509350509193909250565b611107336129b0565b151561111257600080fd5b806003600c81111561112057fe5b60086000838152602001908152602001600020600d0160009054906101000a900460ff16600c81111561114f57fe5b14151561115b57600080fd5b6008600083815260200190815260200160002060020160009054906101000a900473ffffffffffffffffffffffffffffffffffffffff168073ffffffffffffffffffffffffffffffffffffffff163373ffffffffffffffffffffffffffffffffffffffff161415156111cc57600080fd5b600460086000858152602001908152602001600020600d0160006101000a81548160ff0219169083600c8111156111ff57fe5b02179055507fc8ca2150e6e1849a10ef5aa4932060fa353bcacdffeb150c9e1890c6ab9403cc836040518082815260200191505060405180910390a1505050565b6112493361184b565b151561125457600080fd5b806007600c81111561126257fe5b60086000838152602001908152602001600020600d0160009054906101000a900460ff16600c81111561129157fe5b14151561129d57600080fd5b60086000838152602001908152602001600020600b01548034101515156112c357600080fd5b8233600060086000848152602001908152602001600020600b01549050600081340390508273ffffffffffffffffffffffffffffffffffffffff166108fc829081150290604051600060405180830381858888f1935050505015801561132d573d6000803e3d6000fd5b50600061136f600860008a8152602001908152602001600020600d0160019054906101000a900473ffffffffffffffffffffffffffffffffffffffff16613a2b565b90508073ffffffffffffffffffffffffffffffffffffffff166108fc600860008b8152602001908152602001600020600b01549081150290604051600060405180830381858888f193505050501580156113cd573d6000803e3d6000fd5b5033600860008a815260200190815260200160002060020160006101000a81548173ffffffffffffffffffffffffffffffffffffffff021916908373ffffffffffffffffffffffffffffffffffffffff16021790555033600860008a8152602001908152602001600020600e0160006101000a81548173ffffffffffffffffffffffffffffffffffffffff021916908373ffffffffffffffffffffffffffffffffffffffff16021790555060088060008a8152602001908152602001600020600d0160006101000a81548160ff0219169083600c8111156114aa57fe5b021790555043600960008a8152602001908152602001600020600101819055507faa7352d10146444c3afd9bd7fb0ae56b0a85e81139536bbec3f1f660fddd7be1886040518082815260200191505060405180910390a15050505050505050565b6115143361184b565b151561151f57600080fd5b806009600c81111561152d57fe5b60086000838152602001908152602001600020600d0160009054906101000a900460ff16600c81111561155c57fe5b14151561156857600080fd5b6008600083815260200190815260200160002060020160009054906101000a900473ffffffffffffffffffffffffffffffffffffffff168073ffffffffffffffffffffffffffffffffffffffff163373ffffffffffffffffffffffffffffffffffffffff161415156115d957600080fd5b600a60086000858152602001908152602001600020600d0160006101000a81548160ff0219169083600c81111561160c57fe5b02179055507f322f34e90f2269750b3e28178631d975cc678db36f21098fe548b7f755ce0bd0836040518082815260200191505060405180910390a1505050565b600560009054906101000a900473ffffffffffffffffffffffffffffffffffffffff1673ffffffffffffffffffffffffffffffffffffffff163373ffffffffffffffffffffffffffffffffffffffff1614156116eb5760006116d0600560009054906101000a900473ffffffffffffffffffffffffffffffffffffffff16613a2b565b90508073ffffffffffffffffffffffffffffffffffffffff16ff5b565b6116f63361184b565b151561170157600080fd5b81600a600c81111561170f57fe5b60086000838152602001908152602001600020600d0160009054906101000a900460ff16600c81111561173e57fe5b14151561174a57600080fd5b6008600084815260200190815260200160002060020160009054906101000a900473ffffffffffffffffffffffffffffffffffffffff168073ffffffffffffffffffffffffffffffffffffffff163373ffffffffffffffffffffffffffffffffffffffff161415156117bb57600080fd5b600b60086000868152602001908152602001600020600d0160006101000a81548160ff0219169083600c8111156117ee57fe5b02179055508260086000868152602001908152602001600020600b01819055507f59e7ad085805e2b02ad4b0f8033bd75e7ee4c8cd43f996267463585e35896252846040518082815260200191505060405180910390a150505050565b6000611861826003613a3590919063ffffffff16565b9050919050565b61187133613ac9565b565b6000806000606060008060008060008061188b613fba565b600860008d8152602001908152602001600020610220604051908101604052908160008201548152602001600182015481526020016002820160009054906101000a900473ffffffffffffffffffffffffffffffffffffffff1673ffffffffffffffffffffffffffffffffffffffff1673ffffffffffffffffffffffffffffffffffffffff1681526020016003820160009054906101000a900473ffffffffffffffffffffffffffffffffffffffff1673ffffffffffffffffffffffffffffffffffffffff1673ffffffffffffffffffffffffffffffffffffffff168152602001600482018054600181600116156101000203166002900480601f016020809104026020016040519081016040528092919081815260200182805460018160011615610100020316600290048015611a045780601f106119d957610100808354040283529160200191611a04565b820191906000526020600020905b8154815290600101906020018083116119e757829003601f168201915b50505050508152602001600582018054600181600116156101000203166002900480601f016020809104026020016040519081016040528092919081815260200182805460018160011615610100020316600290048015611aa65780601f10611a7b57610100808354040283529160200191611aa6565b820191906000526020600020905b815481529060010190602001808311611a8957829003601f168201915b50505050508152602001600682018054600181600116156101000203166002900480601f016020809104026020016040519081016040528092919081815260200182805460018160011615610100020316600290048015611b485780601f10611b1d57610100808354040283529160200191611b48565b820191906000526020600020905b815481529060010190602001808311611b2b57829003601f168201915b50505050508152602001600782018054600181600116156101000203166002900480601f016020809104026020016040519081016040528092919081815260200182805460018160011615610100020316600290048015611bea5780601f10611bbf57610100808354040283529160200191611bea565b820191906000526020600020905b815481529060010190602001808311611bcd57829003601f168201915b5050505050815260200160088201548152602001600982018054600181600116156101000203166002900480601f016020809104026020016040519081016040528092919081815260200182805460018160011615610100020316600290048015611c965780601f10611c6b57610100808354040283529160200191611c96565b820191906000526020600020905b815481529060010190602001808311611c7957829003601f168201915b50505050508152602001600a8201548152602001600b8201548152602001600c8201548152602001600d820160009054906101000a900460ff16600c811115611cdb57fe5b600c811115611ce657fe5b8152602001600d820160019054906101000a900473ffffffffffffffffffffffffffffffffffffffff1673ffffffffffffffffffffffffffffffffffffffff1673ffffffffffffffffffffffffffffffffffffffff168152602001600e820160009054906101000a900473ffffffffffffffffffffffffffffffffffffffff1673ffffffffffffffffffffffffffffffffffffffff1673ffffffffffffffffffffffffffffffffffffffff168152602001600f820160009054906101000a900473ffffffffffffffffffffffffffffffffffffffff1673ffffffffffffffffffffffffffffffffffffffff1673ffffffffffffffffffffffffffffffffffffffff1681525050905080600001518160200151826101000151836101200151846101600151856101400151866101a00151876101c00151886101e001518961020001518696509a509a509a509a509a509a509a509a509a509a50509193959799509193959799565b600560009054906101000a900473ffffffffffffffffffffffffffffffffffffffff1673ffffffffffffffffffffffffffffffffffffffff163373ffffffffffffffffffffffffffffffffffffffff16141515611ea957600080fd5b600073ffffffffffffffffffffffffffffffffffffffff166000809054906101000a900473ffffffffffffffffffffffffffffffffffffffff1673ffffffffffffffffffffffffffffffffffffffff167f5c486528ec3e3f0ea91181cff8116f02bfa350e03b8b6f12e00765adbb5af85c60405160405180910390a360008060006101000a81548173ffffffffffffffffffffffffffffffffffffffff021916908373ffffffffffffffffffffffffffffffffffffffff160217905550565b611f7133612b66565b1515611f7c57600080fd5b806002600c811115611f8a57fe5b60086000838152602001908152602001600020600d0160009054906101000a900460ff16600c811115611fb957fe5b141515611fc557600080fd5b6008600083815260200190815260200160002060030160009054906101000a900473ffffffffffffffffffffffffffffffffffffffff168073ffffffffffffffffffffffffffffffffffffffff163373ffffffffffffffffffffffffffffffffffffffff1614151561203657600080fd5b600360086000858152602001908152602001600020600d0160006101000a81548160ff0219169083600c81111561206957fe5b02179055507fe6ae062d51064ae2a5a31a72fcb1bee1d343fdc6bddc1d3dfce658ece4f03212836040518082815260200191505060405180910390a1505050565b6120b3336129b0565b15156120be57600080fd5b6120c781613b23565b50565b6000806000806060806060806000806120e1613fba565b600860008d8152602001908152602001600020610220604051908101604052908160008201548152602001600182015481526020016002820160009054906101000a900473ffffffffffffffffffffffffffffffffffffffff1673ffffffffffffffffffffffffffffffffffffffff1673ffffffffffffffffffffffffffffffffffffffff1681526020016003820160009054906101000a900473ffffffffffffffffffffffffffffffffffffffff1673ffffffffffffffffffffffffffffffffffffffff1673ffffffffffffffffffffffffffffffffffffffff168152602001600482018054600181600116156101000203166002900480601f01602080910402602001604051908101604052809291908181526020018280546001816001161561010002031660029004801561225a5780601f1061222f5761010080835404028352916020019161225a565b820191906000526020600020905b81548152906001019060200180831161223d57829003601f168201915b50505050508152602001600582018054600181600116156101000203166002900480601f0160208091040260200160405190810160405280929190818152602001828054600181600116156101000203166002900480156122fc5780601f106122d1576101008083540402835291602001916122fc565b820191906000526020600020905b8154815290600101906020018083116122df57829003601f168201915b50505050508152602001600682018054600181600116156101000203166002900480601f01602080910402602001604051908101604052809291908181526020018280546001816001161561010002031660029004801561239e5780601f106123735761010080835404028352916020019161239e565b820191906000526020600020905b81548152906001019060200180831161238157829003601f168201915b50505050508152602001600782018054600181600116156101000203166002900480601f0160208091040260200160405190810160405280929190818152602001828054600181600116156101000203166002900480156124405780601f1061241557610100808354040283529160200191612440565b820191906000526020600020905b81548152906001019060200180831161242357829003601f168201915b5050505050815260200160088201548152602001600982018054600181600116156101000203166002900480601f0160208091040260200160405190810160405280929190818152602001828054600181600116156101000203166002900480156124ec5780601f106124c1576101008083540402835291602001916124ec565b820191906000526020600020905b8154815290600101906020018083116124cf57829003601f168201915b50505050508152602001600a8201548152602001600b8201548152602001600c8201548152602001600d820160009054906101000a900460ff16600c81111561253157fe5b600c81111561253c57fe5b8152602001600d820160019054906101000a900473ffffffffffffffffffffffffffffffffffffffff1673ffffffffffffffffffffffffffffffffffffffff1673ffffffffffffffffffffffffffffffffffffffff168152602001600e820160009054906101000a900473ffffffffffffffffffffffffffffffffffffffff1673ffffffffffffffffffffffffffffffffffffffff1673ffffffffffffffffffffffffffffffffffffffff168152602001600f820160009054906101000a900473ffffffffffffffffffffffffffffffffffffffff1673ffffffffffffffffffffffffffffffffffffffff1673ffffffffffffffffffffffffffffffffffffffff16815250509050806000015181602001518260400151836060015184608001518560a001518660c001518760e001518861014001518961018001518595508494508393508292509a509a509a509a509a509a509a509a509a509a50509193959799509193959799565b6126af33612b66565b15156126ba57600080fd5b6126c381613b7d565b50565b6126cf33613bd7565b565b6126da336129b0565b15156126e557600080fd5b806008600c8111156126f357fe5b60086000838152602001908152602001600020600d0160009054906101000a900460ff16600c81111561272257fe5b14151561272e57600080fd5b60086000838152602001908152602001600020600d0160019054906101000a900473ffffffffffffffffffffffffffffffffffffffff168073ffffffffffffffffffffffffffffffffffffffff163373ffffffffffffffffffffffffffffffffffffffff1614151561279f57600080fd5b600960086000858152602001908152602001600020600d0160006101000a81548160ff0219169083600c8111156127d257fe5b02179055507fc5c33776d405e5686e4386e1ef31a65cf6195e4f7ceb8808ab64d05b6ccbc2a6836040518082815260200191505060405180910390a1505050565b6000612829826004613a3590919063ffffffff16565b9050919050565b612839336129b0565b151561284457600080fd5b816006600c81111561285257fe5b60086000838152602001908152602001600020600d0160009054906101000a900460ff16600c81111561288157fe5b14151561288d57600080fd5b6008600084815260200190815260200160002060020160009054906101000a900473ffffffffffffffffffffffffffffffffffffffff168073ffffffffffffffffffffffffffffffffffffffff163373ffffffffffffffffffffffffffffffffffffffff161415156128fe57600080fd5b600760086000868152602001908152602001600020600d0160006101000a81548160ff0219169083600c81111561293157fe5b02179055508260086000868152602001908152602001600020600b01819055507f539b4a835a8a5d1bc5756a9f146e2bfeaa6bd6b1fa77a7631c0a5154c86cdd036006546040518082815260200191505060405180910390a150505050565b6129993361184b565b15156129a457600080fd5b6129ad81613c31565b50565b60006129c6826002613a3590919063ffffffff16565b9050919050565b60008060009054906101000a900473ffffffffffffffffffffffffffffffffffffffff1673ffffffffffffffffffffffffffffffffffffffff163373ffffffffffffffffffffffffffffffffffffffff1614905090565b612a2d336129b0565b1515612a3857600080fd5b806005600c811115612a4657fe5b60086000838152602001908152602001600020600d0160009054906101000a900460ff16600c811115612a7557fe5b141515612a8157600080fd5b6008600083815260200190815260200160002060020160009054906101000a900473ffffffffffffffffffffffffffffffffffffffff168073ffffffffffffffffffffffffffffffffffffffff163373ffffffffffffffffffffffffffffffffffffffff16141515612af257600080fd5b600660086000858152602001908152602001600020600d0160006101000a81548160ff0219169083600c811115612b2557fe5b02179055507fe66bb55f536a4cc96647dde6ff37b712c07348eaa88366931f491d93c0fcd981836040518082815260200191505060405180910390a1505050565b6000612b7c826001613a3590919063ffffffff16565b9050919050565b612b8c33613c8b565b565b612b9733612813565b1515612ba257600080fd5b80600b600c811115612bb057fe5b60086000838152602001908152602001600020600d0160009054906101000a900460ff16600c811115612bdf57fe5b141515612beb57600080fd5b60086000838152602001908152602001600020600b0154803410151515612c1157600080fd5b8233600060086000848152602001908152602001600020600b01549050600081340390508273ffffffffffffffffffffffffffffffffffffffff166108fc829081150290604051600060405180830381858888f19350505050158015612c7b573d6000803e3d6000fd5b503360086000898152602001908152602001600020600f0160006101000a81548173ffffffffffffffffffffffffffffffffffffffff021916908373ffffffffffffffffffffffffffffffffffffffff1602179055506000612d12600860008a8152602001908152602001600020600e0160009054906101000a900473ffffffffffffffffffffffffffffffffffffffff16613a2b565b90508073ffffffffffffffffffffffffffffffffffffffff166108fc600860008b8152602001908152602001600020600b01549081150290604051600060405180830381858888f19350505050158015612d70573d6000803e3d6000fd5b5033600860008a815260200190815260200160002060020160006101000a81548173ffffffffffffffffffffffffffffffffffffffff021916908373ffffffffffffffffffffffffffffffffffffffff16021790555033600860008a8152602001908152602001600020600f0160006101000a81548173ffffffffffffffffffffffffffffffffffffffff021916908373ffffffffffffffffffffffffffffffffffffffff160217905550600c600860008a8152602001908152602001600020600d0160006101000a81548160ff0219169083600c811115612e4e57fe5b021790555043600960008a8152602001908152602001600020600201819055507fc7e94446a942a0541d0224ece380a730c85f03db7188fca783225da9255929f7886040518082815260200191505060405180910390a15050505050505050565b60008060009054906101000a900473ffffffffffffffffffffffffffffffffffffffff16905090565b612ee133612b66565b1515612eec57600080fd5b6000806000612ef9613fba565b6007548160000181815250508a81602001818152505033816040019073ffffffffffffffffffffffffffffffffffffffff16908173ffffffffffffffffffffffffffffffffffffffff168152505033816060019073ffffffffffffffffffffffffffffffffffffffff16908173ffffffffffffffffffffffffffffffffffffffff1681525050898160800181905250888160a00181905250878160c00181905250868160e001819052506007548b018161010001818152505085816101200181905250848161016001818152505042816101400181815250506000816101800181815250506000816101a00190600c811115612ff157fe5b9081600c811115612ffe57fe5b8152505083816101c0019073ffffffffffffffffffffffffffffffffffffffff16908173ffffffffffffffffffffffffffffffffffffffff168152505082816101e0019073ffffffffffffffffffffffffffffffffffffffff16908173ffffffffffffffffffffffffffffffffffffffff16815250508181610200019073ffffffffffffffffffffffffffffffffffffffff16908173ffffffffffffffffffffffffffffffffffffffff168152505080600860008d8152602001908152602001600020600082015181600001556020820151816001015560408201518160020160006101000a81548173ffffffffffffffffffffffffffffffffffffffff021916908373ffffffffffffffffffffffffffffffffffffffff16021790555060608201518160030160006101000a81548173ffffffffffffffffffffffffffffffffffffffff021916908373ffffffffffffffffffffffffffffffffffffffff160217905550608082015181600401908051906020019061317f9291906140b8565b5060a082015181600501908051906020019061319c9291906140b8565b5060c08201518160060190805190602001906131b99291906140b8565b5060e08201518160070190805190602001906131d69291906140b8565b5061010082015181600801556101208201518160090190805190602001906131ff9291906140b8565b5061014082015181600a015561016082015181600b015561018082015181600c01556101a082015181600d0160006101000a81548160ff0219169083600c81111561324657fe5b02179055506101c082015181600d0160016101000a81548173ffffffffffffffffffffffffffffffffffffffff021916908373ffffffffffffffffffffffffffffffffffffffff1602179055506101e082015181600e0160006101000a81548173ffffffffffffffffffffffffffffffffffffffff021916908373ffffffffffffffffffffffffffffffffffffffff16021790555061020082015181600f0160006101000a81548173ffffffffffffffffffffffffffffffffffffffff021916908373ffffffffffffffffffffffffffffffffffffffff1602179055509050506000613330613f98565b81816000018181525050818160200181815250508181604001818152505080600960008f81526020019081526020016000206000820151816000015560208201518160010155604082015181600201559050506001600754016007819055507fe8a027a2bb83abbf6ec926b84d4aeb91585c16b58b27b8d0f0fb451566a552118d6040518082815260200191505060405180910390a150505050505050505050505050565b6133de33612b66565b15156133e957600080fd5b816000600c8111156133f757fe5b60086000838152602001908152602001600020600d0160009054906101000a900460ff16600c81111561342657fe5b14151561343257600080fd5b6008600084815260200190815260200160002060020160009054906101000a900473ffffffffffffffffffffffffffffffffffffffff168073ffffffffffffffffffffffffffffffffffffffff163373ffffffffffffffffffffffffffffffffffffffff161415156134a357600080fd5b600160086000868152602001908152602001600020600d0160006101000a81548160ff0219169083600c8111156134d657fe5b02179055508260086000868152602001908152602001600020600b01819055507f7a02b5a0b1f928cffcafd0e750f369a40f124f4f34f65801fe1f0d945b9a7915846040518082815260200191505060405180910390a150505050565b61353c336129b0565b151561354757600080fd5b816004600c81111561355557fe5b60086000838152602001908152602001600020600d0160009054906101000a900460ff16600c81111561358457fe5b14151561359057600080fd5b6008600084815260200190815260200160002060020160009054906101000a900473ffffffffffffffffffffffffffffffffffffffff168073ffffffffffffffffffffffffffffffffffffffff163373ffffffffffffffffffffffffffffffffffffffff1614151561360157600080fd5b600560086000868152602001908152602001600020600d0160006101000a81548160ff0219169083600c81111561363457fe5b02179055508260086000868152602001908152602001600020600c01819055507f5725e53fd0efed5294b7db2af148f040264a63630b4deb0afbccf6e60830988a846040518082815260200191505060405180910390a150505050565b600560009054906101000a900473ffffffffffffffffffffffffffffffffffffffff1673ffffffffffffffffffffffffffffffffffffffff163373ffffffffffffffffffffffffffffffffffffffff161415156136ed57600080fd5b6136f681613ce5565b50565b61370281613ddf565b50565b61370e336129b0565b151561371957600080fd5b806001600c81111561372757fe5b60086000838152602001908152602001600020600d0160009054906101000a900460ff16600c81111561375657fe5b14151561376257600080fd5b60086000838152602001908152602001600020600b015480341015151561378857600080fd5b8233600060086000848152602001908152602001600020600b01549050600081340390508273ffffffffffffffffffffffffffffffffffffffff166108fc829081150290604051600060405180830381858888f193505050501580156137f2573d6000803e3d6000fd5b506000613834600860008a815260200190815260200160002060030160009054906101000a900473ffffffffffffffffffffffffffffffffffffffff16613a2b565b90508073ffffffffffffffffffffffffffffffffffffffff166108fc600860008b8152602001908152602001600020600b01549081150290604051600060405180830381858888f19350505050158015613892573d6000803e3d6000fd5b5033600860008a815260200190815260200160002060020160006101000a81548173ffffffffffffffffffffffffffffffffffffffff021916908373ffffffffffffffffffffffffffffffffffffffff16021790555033600860008a8152602001908152602001600020600d0160016101000a81548173ffffffffffffffffffffffffffffffffffffffff021916908373ffffffffffffffffffffffffffffffffffffffff1602179055506002600860008a8152602001908152602001600020600d0160006101000a81548160ff0219169083600c81111561397057fe5b021790555043600960008a8152602001908152602001600020600001819055507facd9402b9f9e8c15fa7c1819f8393ca56eb61316cc354fc6ac2150aed3ce7931886040518082815260200191505060405180910390a15050505050505050565b6139e5816004613e3990919063ffffffff16565b8073ffffffffffffffffffffffffffffffffffffffff167f28b26e7a3d20aedbc5f8f2ebf7da671c0491723a2b78f47a097b0e46dee0714260405160405180910390a250565b6000819050919050565b60008073ffffffffffffffffffffffffffffffffffffffff168273ffffffffffffffffffffffffffffffffffffffff1614151515613a7257600080fd5b8260000160008373ffffffffffffffffffffffffffffffffffffffff1673ffffffffffffffffffffffffffffffffffffffff16815260200190815260200160002060009054906101000a900460ff16905092915050565b613add816002613ee990919063ffffffff16565b8073ffffffffffffffffffffffffffffffffffffffff167f126174f6cf49c81cdb4a9214c6b8f037bef55b4ec31e4fc776cea2a1c8a88d5960405160405180910390a250565b613b37816002613e3990919063ffffffff16565b8073ffffffffffffffffffffffffffffffffffffffff167fddbf200aa634dc3fb81cfd68583dd1040d1c751d335e1d86b631bde3e977fea860405160405180910390a250565b613b91816001613e3990919063ffffffff16565b8073ffffffffffffffffffffffffffffffffffffffff167f2e0ded4123377a3c2bc9a26f1717655a129e2f20752924d42e730ec89c83dbd060405160405180910390a250565b613beb816001613ee990919063ffffffff16565b8073ffffffffffffffffffffffffffffffffffffffff167fa5e0f060af304ab17dd418c7927e3da3ae7868189bf387aee09ab179ccc572f260405160405180910390a250565b613c45816003613e3990919063ffffffff16565b8073ffffffffffffffffffffffffffffffffffffffff167f71ae26cad02663e3d92efd6ec56031a80d74a20c0ab4183faa8bf262261c9baa60405160405180910390a250565b613c9f816003613ee990919063ffffffff16565b8073ffffffffffffffffffffffffffffffffffffffff167fdb7176e79cffef81cb01767dd0447a0b24bb72ca9778d4b245581086b2a7e6db60405160405180910390a250565b600073ffffffffffffffffffffffffffffffffffffffff168173ffffffffffffffffffffffffffffffffffffffff1614151515613d2157600080fd5b8073ffffffffffffffffffffffffffffffffffffffff166000809054906101000a900473ffffffffffffffffffffffffffffffffffffffff1673ffffffffffffffffffffffffffffffffffffffff167f5c486528ec3e3f0ea91181cff8116f02bfa350e03b8b6f12e00765adbb5af85c60405160405180910390a3806000806101000a81548173ffffffffffffffffffffffffffffffffffffffff021916908373ffffffffffffffffffffffffffffffffffffffff16021790555050565b613df3816004613ee990919063ffffffff16565b8073ffffffffffffffffffffffffffffffffffffffff167fe3f5ed5f263f1f01764a96edfc7d025f511ec5f7d180e8816908b78bcf74f09860405160405180910390a250565b600073ffffffffffffffffffffffffffffffffffffffff168173ffffffffffffffffffffffffffffffffffffffff1614151515613e7557600080fd5b613e7f8282613a35565b151515613e8b57600080fd5b60018260000160008373ffffffffffffffffffffffffffffffffffffffff1673ffffffffffffffffffffffffffffffffffffffff16815260200190815260200160002060006101000a81548160ff0219169083151502179055505050565b600073ffffffffffffffffffffffffffffffffffffffff168173ffffffffffffffffffffffffffffffffffffffff1614151515613f2557600080fd5b613f2f8282613a35565b1515613f3a57600080fd5b60008260000160008373ffffffffffffffffffffffffffffffffffffffff1673ffffffffffffffffffffffffffffffffffffffff16815260200190815260200160002060006101000a81548160ff0219169083151502179055505050565b6060604051908101604052806000815260200160008152602001600081525090565b610220604051908101604052806000815260200160008152602001600073ffffffffffffffffffffffffffffffffffffffff168152602001600073ffffffffffffffffffffffffffffffffffffffff1681526020016060815260200160608152602001606081526020016060815260200160008152602001606081526020016000815260200160008152602001600081526020016000600c81111561405b57fe5b8152602001600073ffffffffffffffffffffffffffffffffffffffff168152602001600073ffffffffffffffffffffffffffffffffffffffff168152602001600073ffffffffffffffffffffffffffffffffffffffff1681525090565b828054600181600116156101000203166002900490600052602060002090601f016020900481019282601f106140f957805160ff1916838001178555614127565b82800160010185558215614127579182015b8281111561412657825182559160200191906001019061410b565b5b5090506141349190614138565b5090565b61415a91905b8082111561415657600081600090555060010161413e565b5090565b9056fea165627a7a72305820195c23b930bfc3e9f39d20ce218cd3f2655b441da0f98da9161159b28b6bb6900029",
  "source": "pragma solidity >=0.4.24;\r\n\r\nimport '../parmigianocore/Ownable.sol';\r\nimport '../parmigianoaccesscontrol/FarmerRole.sol';\r\nimport '../parmigianoaccesscontrol/DistributorRole.sol';\r\nimport '../parmigianoaccesscontrol/RetailerRole.sol';\r\nimport '../parmigianoaccesscontrol/ConsumerRole.sol';\r\n\r\n\r\n// Define a contract 'Supplychain'\r\ncontract SupplyChain is Ownable,FarmerRole,DistributorRole,RetailerRole,ConsumerRole {\r\n\r\n  // Define 'owner'\r\n  address owner;\r\n\r\n  // Define a variable called 'upc' for Universal Product Code (UPC)\r\n  uint  upc;\r\n\r\n  // Define a variable called 'sku' for Stock Keeping Unit (SKU)\r\n  uint  sku;\r\n\r\n  // Define a public mapping 'items' that maps the UPC to an Item.\r\n  mapping (uint => Item) items;\r\n\r\n  // Define a public mapping 'itemsHistory' that maps the UPC to an array of TxHash,\r\n  // that track its journey through the supply chain -- to be sent from DApp.\r\n  mapping (uint => Txblocks) itemsHistory;\r\n\r\n  // Define enum 'State' with the following values:\r\n  enum State\r\n  {\r\n    ProduceByFarmer,         // 0\r\n    ForSaleByFarmer,         // 1\r\n    PurchasedByDistributor,  // 2\r\n    ShippedByFarmer,         // 3\r\n    ReceivedByDistributor,   // 4\r\n    ProcessedByDistributor,  // 5\r\n    PackageByDistributor,    // 6\r\n    ForSaleByDistributor,    // 7\r\n    PurchasedByRetailer,     // 8\r\n    ShippedByDistributor,    // 9\r\n    ReceivedByRetailer,      // 10\r\n    ForSaleByRetailer,       // 11\r\n    PurchasedByConsumer      // 12\r\n    }\r\n\r\n\r\n  State constant defaultState = State.ProduceByFarmer;\r\n\r\n  // Define a struct 'Item' with the following fields:\r\n  struct Item {\r\n    uint    sku;                    // Stock Keeping Unit (SKU)\r\n    uint    upc;                    // Universal Product Code (UPC), generated by the Farmer, goes on the package, can be verified by the Consumer\r\n    address ownerID;                // Metamask-Ethereum address of the current owner as the product moves through 8 stages\r\n    address originFarmerID;         // Metamask-Ethereum address of the Farmer // ADDED PAYABLE\r\n    string  originFarmName;         // Farmer Name\r\n    string  originFarmInformation;  // Farmer Information\r\n    string  originFarmLatitude;     // Farm Latitude\r\n    string  originFarmLongitude;    // Farm Longitude\r\n    uint    productID;              // Product ID potentially a combination of upc + sku\r\n    string  productNotes;           // Product Notes\r\n    uint256 productDate;            // Product Date NOTE: MIGHT NEED TO CHANGE type\r\n    uint    productPrice;           // Product Price\r\n    uint    productSliced;          // Parent cheese\r\n    State   itemState;              // Product State as represented in the enum above\r\n    address distributorID;          // Metamask-Ethereum address of the Distributor\r\n    address retailerID;             // Metamask-Ethereum address of the Retailer\r\n    address consumerID;             // Metamask-Ethereum address of the Consumer // ADDED payable\r\n  }\r\n\r\n  struct Txblocks {\r\n    uint FTD;\r\n    uint DTR;\r\n    uint RTC;\r\n  }\r\n\r\n\r\nevent ProduceByFarmer(uint upc);         //1\r\nevent ForSaleByFarmer(uint upc);         //2\r\nevent PurchasedByDistributor(uint upc);  //3\r\nevent ShippedByFarmer(uint upc);         //4\r\nevent ReceivedByDistributor(uint upc);   //5\r\nevent ProcessedByDistributor(uint upc);  //6\r\nevent PackagedByDistributor(uint upc);   //7\r\nevent ForSaleByDistributor(uint upc);    //8\r\nevent PurchasedByRetailer(uint upc);     //9\r\nevent ShippedByDistributor(uint upc);    //10\r\nevent ReceivedByRetailer(uint upc);      //11\r\nevent ForSaleByRetailer(uint upc);       //12\r\nevent PurchasedByConsumer(uint upc);     //13\r\n\r\n\r\n  // Define a modifer that checks to see if msg.sender == owner of the contract\r\n  modifier onlyOwner() {\r\n    require(msg.sender == owner);\r\n    _;\r\n  }\r\n\r\n  // Define a modifer that verifies the Caller\r\n  modifier verifyCaller (address _address) {\r\n    require(msg.sender == _address);\r\n    _;\r\n  }\r\n\r\n  // Define a modifier that checks if the paid amount is sufficient to cover the price\r\n  modifier paidEnough(uint _price) {\r\n    require(msg.value >= _price);\r\n    _;\r\n  }\r\n\r\n  // Define a modifier that checks the price and refunds the remaining balance\r\n  modifier checkValue(uint _upc, address payable addressToFund) { // ADDED address payable\r\n    uint _price = items[_upc].productPrice;\r\n    uint  amountToReturn = msg.value - _price;\r\n    addressToFund.transfer(amountToReturn);\r\n    _;\r\n  }\r\n\r\n\r\n\r\n  modifier producedByFarmer(uint _upc) {\r\n    require(items[_upc].itemState == State.ProduceByFarmer);\r\n    _;\r\n  }\r\n\r\n  modifier forSaleByFarmer(uint _upc) {\r\n    require(items[_upc].itemState == State.ForSaleByFarmer);\r\n    _;\r\n  }\r\n\r\n  modifier purchasedByDistributor(uint _upc) {\r\n    require(items[_upc].itemState == State.PurchasedByDistributor);\r\n    _;\r\n  }\r\n\r\n  modifier shippedByFarmer(uint _upc) {\r\n    require(items[_upc].itemState == State.ShippedByFarmer);\r\n    _;\r\n  }\r\n\r\n  modifier receivedByDistributor(uint _upc) {\r\n    require(items[_upc].itemState == State.ReceivedByDistributor);\r\n    _;\r\n  }\r\n\r\n  modifier processByDistributor(uint _upc) {\r\n    require(items[_upc].itemState == State.ProcessedByDistributor);\r\n    _;\r\n  }\r\n\r\n  modifier packagedByDistributor(uint _upc) {\r\n    require(items[_upc].itemState == State.PackageByDistributor);\r\n    _;\r\n  }\r\n\r\n  modifier forSaleByDistributor(uint _upc) {\r\n    require(items[_upc].itemState == State.ForSaleByDistributor);\r\n    _;\r\n  }\r\n\r\n\r\n  modifier shippedByDistributor(uint _upc) {\r\n    require(items[_upc].itemState == State.ShippedByDistributor);\r\n    _;\r\n  }\r\n\r\n  modifier purchasedByRetailer(uint _upc) {\r\n    require(items[_upc].itemState == State.PurchasedByRetailer);\r\n    _;\r\n  }\r\n\r\n  modifier receivedByRetailer(uint _upc) {\r\n    require(items[_upc].itemState == State.ReceivedByRetailer);\r\n    _;\r\n  }\r\n\r\n  modifier forSaleByRetailer(uint _upc) {\r\n    require(items[_upc].itemState == State.ForSaleByRetailer);\r\n    _;\r\n  }\r\n\r\n  modifier purchasedByConsumer(uint _upc) {\r\n    require(items[_upc].itemState == State.PurchasedByConsumer);\r\n    _;\r\n  }\r\n\r\n  constructor() public payable {\r\n    owner = msg.sender;\r\n    sku = 1;\r\n    upc = 1;\r\n  }\r\n\r\n    // Define a function 'kill' if required\r\n  function kill() public {\r\n    if (msg.sender == owner) {\r\n      address payable ownerAddressPayable = _make_payable(owner);\r\n      selfdestruct(ownerAddressPayable);\r\n    }\r\n  }\r\n\r\n\r\n    // Function that allows you to convert an address into a payable address\r\n  function _make_payable(address x) internal pure returns (address payable) {\r\n      return address(uint160(x));\r\n  }\r\n\r\n\r\n  function _purchased(uint _upc, State state, address address_to_pay) internal {\r\n    address payable ownerAddressPayable = _make_payable(address_to_pay);\r\n    ownerAddressPayable.transfer(items[_upc].productPrice);\r\n    items[_upc].ownerID = msg.sender;\r\n    items[_upc].itemState = state;\r\n  }\r\n\r\n\r\n\r\n\r\n  function produceItemByFarmer(uint _upc, string memory _originFarmName, string memory _originFarmInformation, string memory _originFarmLatitude, string memory _originFarmLongitude, string memory _productNotes, uint _price) public\r\n    onlyFarmer()\r\n    {\r\n\r\n    address distributorID;\r\n    address retailerID;\r\n    address consumerID;\r\n    Item memory newProduce;\r\n    newProduce.sku = sku;  // Stock Keeping Unit (SKU)\r\n    newProduce.upc = _upc; // Universal Product Code (UPC), generated by the Farmer, goes on the package, can be verified by the Consumer\r\n    newProduce.ownerID = msg.sender;  // Metamask-Ethereum address of the current owner as the product moves through 8 stages\r\n    newProduce.originFarmerID = msg.sender; // Metamask-Ethereum address of the Farmer\r\n    newProduce.originFarmName = _originFarmName;  // Farmer Name\r\n    newProduce.originFarmInformation = _originFarmInformation; // Farmer Information\r\n    newProduce.originFarmLatitude = _originFarmLatitude; // Farm Latitude\r\n    newProduce.originFarmLongitude = _originFarmLongitude;  // Farm Longitude\r\n    newProduce.productID = _upc+sku;  // Product ID\r\n    newProduce.productNotes = _productNotes; // Product Notes\r\n    newProduce.productPrice = _price;  // Product Price\r\n    newProduce.productDate = now;\r\n    newProduce.productSliced = 0;\r\n    newProduce.itemState = defaultState; // Product State as represented in the enum above\r\n    newProduce.distributorID = distributorID; // Metamask-Ethereum address of the Distributor\r\n    newProduce.retailerID = retailerID; // Metamask-Ethereum address of the Retailer\r\n    newProduce.consumerID = consumerID; // Metamask-Ethereum address of the Consumer // ADDED payable\r\n    items[_upc] = newProduce;\r\n\r\n    uint placeholder;\r\n    Txblocks memory txBlock;\r\n    txBlock.FTD = placeholder;\r\n    txBlock.DTR = placeholder;\r\n    txBlock.RTC = placeholder;\r\n    itemsHistory[_upc] = txBlock;\r\n\r\n    // Increment sku\r\n    sku = sku + 1;\r\n\r\n    // Emit the appropriate event\r\n    emit ProduceByFarmer(_upc);\r\n\r\n  }\r\n\r\n\r\n  function sellItemByFarmer(uint _upc, uint _price) public\r\n    onlyFarmer()\r\n    producedByFarmer(_upc)\r\n    verifyCaller(items[_upc].ownerID)\r\n    {\r\n      items[_upc].itemState = State.ForSaleByFarmer;\r\n      items[_upc].productPrice = _price;\r\n      emit ForSaleByFarmer(_upc);\r\n  }\r\n\r\n\r\n  function purchaseItemByDistributor(uint _upc) public payable\r\n    onlyDistributor()\r\n    forSaleByFarmer(_upc)\r\n    paidEnough(items[_upc].productPrice)\r\n    checkValue(_upc, msg.sender)\r\n    {\r\n    address payable ownerAddressPayable = _make_payable(items[_upc].originFarmerID);\r\n    ownerAddressPayable.transfer(items[_upc].productPrice);\r\n    items[_upc].ownerID = msg.sender;\r\n    items[_upc].distributorID = msg.sender;\r\n    items[_upc].itemState = State.PurchasedByDistributor;\r\n    itemsHistory[_upc].FTD = block.number;\r\n    emit PurchasedByDistributor(_upc);\r\n\r\n  }\r\n\r\n  //4\r\n  function shippedItemByFarmer(uint _upc) public payable\r\n    onlyFarmer()\r\n    purchasedByDistributor(_upc)\r\n    verifyCaller(items[_upc].originFarmerID)\r\n    {\r\n    items[_upc].itemState = State.ShippedByFarmer;\r\n    emit ShippedByFarmer(_upc);\r\n  }\r\n\r\n  //5\r\n  function receivedItemByDistributor(uint _upc) public\r\n    onlyDistributor()\r\n    shippedByFarmer(_upc)\r\n    verifyCaller(items[_upc].ownerID)\r\n    {\r\n    items[_upc].itemState = State.ReceivedByDistributor;\r\n    emit ReceivedByDistributor(_upc);\r\n  }\r\n\r\n  //6\r\n  function processedItemByDistributor(uint _upc,uint slices) public\r\n    onlyDistributor()\r\n    receivedByDistributor(_upc)\r\n    verifyCaller(items[_upc].ownerID)\r\n    {\r\n    items[_upc].itemState = State.ProcessedByDistributor;\r\n    items[_upc].productSliced = slices;\r\n    emit ProcessedByDistributor(_upc);\r\n  }\r\n\r\n  //7\r\n  function packageItemByDistributor(uint _upc) public\r\n    onlyDistributor()\r\n    processByDistributor(_upc)\r\n    verifyCaller(items[_upc].ownerID)\r\n    {\r\n    items[_upc].itemState = State.PackageByDistributor;\r\n    emit PackagedByDistributor(_upc);\r\n  }\r\n\r\n  //8\r\n  function sellItemByDistributor(uint _upc, uint _price) public\r\n    onlyDistributor()\r\n    packagedByDistributor(_upc)\r\n    verifyCaller(items[_upc].ownerID)\r\n    {\r\n        items[_upc].itemState = State.ForSaleByDistributor;\r\n        items[_upc].productPrice = _price;\r\n        emit ForSaleByDistributor(upc);\r\n  }\r\n\r\n  //9\r\n  function purchaseItemByRetailer(uint _upc) public payable\r\n    onlyRetailer()\r\n    forSaleByDistributor(_upc)\r\n    paidEnough(items[_upc].productPrice)\r\n    checkValue(_upc, msg.sender)\r\n    {\r\n    address payable ownerAddressPayable = _make_payable(items[_upc].distributorID);\r\n    ownerAddressPayable.transfer(items[_upc].productPrice);\r\n    items[_upc].ownerID = msg.sender;\r\n    items[_upc].retailerID = msg.sender;\r\n    items[_upc].itemState = State.PurchasedByRetailer;\r\n    itemsHistory[_upc].DTR = block.number;\r\n    emit PurchasedByRetailer(_upc);\r\n  }\r\n\r\n  //10\r\n  function shippedItemByDistributor(uint _upc) public\r\n    onlyDistributor()\r\n    purchasedByRetailer(_upc)\r\n    verifyCaller(items[_upc].distributorID)\r\n    {\r\n      items[_upc].itemState = State.ShippedByDistributor;\r\n      emit ShippedByDistributor(_upc);\r\n  }\r\n\r\n  //11\r\n  function receivedItemByRetailer(uint _upc) public\r\n    onlyRetailer()\r\n    shippedByDistributor(_upc)\r\n    verifyCaller(items[_upc].ownerID)\r\n    {\r\n      items[_upc].itemState = State.ReceivedByRetailer;\r\n      emit ReceivedByRetailer(_upc);\r\n  }\r\n\r\n  //12\r\n  function sellItemByRetailer(uint _upc, uint _price) public\r\n    onlyRetailer()\r\n    receivedByRetailer(_upc)\r\n    verifyCaller(items[_upc].ownerID)\r\n    {\r\n      items[_upc].itemState = State.ForSaleByRetailer;\r\n      items[_upc].productPrice = _price;\r\n      emit ForSaleByRetailer(_upc);\r\n  }\r\n\r\n  //13\r\n  function purchaseItemByConsumer(uint _upc) public payable\r\n    onlyConsumer()\r\n    forSaleByRetailer(_upc)\r\n    paidEnough(items[_upc].productPrice)\r\n    checkValue(_upc, msg.sender)\r\n    {\r\n      items[_upc].consumerID = msg.sender;\r\n      address payable ownerAddressPayable = _make_payable(items[_upc].retailerID);\r\n      ownerAddressPayable.transfer(items[_upc].productPrice);\r\n      items[_upc].ownerID = msg.sender;\r\n      items[_upc].consumerID = msg.sender;\r\n      items[_upc].itemState = State.PurchasedByConsumer;\r\n      itemsHistory[_upc].RTC = block.number;\r\n    emit PurchasedByConsumer(_upc);\r\n  }\r\n\r\n  // Define a function 'fetchItemBufferOne' that fetches the data\r\n  function fetchItemBufferOne(uint _upc) public view returns\r\n    (\r\n    uint    itemSKU,\r\n    uint    itemUPC,\r\n    address ownerID,\r\n    address originFarmerID,\r\n    string memory  originFarmName,\r\n    string memory originFarmInformation,\r\n    string memory originFarmLatitude,\r\n    string memory originFarmLongitude,\r\n    uint productDate,\r\n    uint productSliced\r\n    )\r\n    {\r\n    // Assign values to the 8 parameters\r\n    Item memory item = items[_upc];\r\n\r\n    return\r\n    (\r\n      item.sku,\r\n      item.upc,\r\n      item.ownerID,\r\n      item.originFarmerID,\r\n      item.originFarmName,\r\n      item.originFarmInformation,\r\n      item.originFarmLatitude,\r\n      item.originFarmLongitude,\r\n      item.productDate,\r\n      item.productSliced\r\n    );\r\n  }\r\n\r\n  // Define a function 'fetchItemBufferTwo' that fetches the data\r\n  function fetchItemBufferTwo(uint _upc) public view returns\r\n    (\r\n    uint    itemSKU,\r\n    uint    itemUPC,\r\n    uint    productID,\r\n    string  memory productNotes,\r\n    uint    productPrice,\r\n    uint256 productDate,\r\n    State   itemState,\r\n    address distributorID,\r\n    address retailerID,\r\n    address consumerID\r\n    )\r\n    {\r\n      // Assign values to the 9 parameters\r\n    Item memory item = items[_upc];\r\n\r\n    return\r\n    (\r\n      item.sku,\r\n      item.upc,\r\n      item.productID,\r\n      item.productNotes,\r\n      item.productPrice,\r\n      item.productDate,\r\n      item.itemState,\r\n      item.distributorID,\r\n      item.retailerID,\r\n      item.consumerID\r\n    );\r\n\r\n  }\r\n\r\n  // Define a function 'fetchItemHistory' that fetaches the data\r\n  function fetchitemHistory(uint _upc) public view returns\r\n    (\r\n      uint blockfarmerToDistributor,\r\n      uint blockDistributorToRetailer,\r\n      uint blockRetailerToConsumer\r\n    )\r\n    {\r\n      Txblocks memory txblock = itemsHistory[_upc];\r\n      return\r\n      (\r\n        txblock.FTD,\r\n        txblock.DTR,\r\n        txblock.RTC\r\n      );\r\n\r\n    }\r\n\r\n  }\r\n",
  "sourcePath": "/Users/mitch/Desktop/BlockChain_SuppyChain/contracts/parmigianobase/SupplyChain.sol",
  "compiler": {
    "name": "solc",
    "version": "0.5.0+commit.1d4f565a.Emscripten.clang"
  },
  "schemaVersion": "3.0.8",
  "updatedAt": "2019-05-01T20:30:05.431Z",
  "devdoc": {
    "methods": {}
  },
  "userdoc": {
    "methods": {
      "isOwner()": {
        "notice": "Check if the calling address is the owner of the contract"
      },
      "ownerLookup()": {
        "notice": "Look up the address of the owner"
      },
      "renounceOwnership()": {
        "notice": "Define a function to renounce ownerhip"
      },
      "transferOwnership(address)": {
        "notice": "Define a public function to transfer ownership"
      }
    }
  }
}